01Name                        Surname                       Patronymic                    221B Baker Street             
02000001000000054321PLN                                                                                                 
02000002000000011111EUR                                                                                                 
02000003000000022222USD                                                                                                 
02000004000000033333PLN                                                                                                 
02000005000000044444EUR                                                                                                 
02000006000000055555USD                                                                                                 
02000007000000066666PLN                                                                                                 
02000008000000077777EUR                                                                                                 
02000009000000088888USD                                                                                                 
02000010000000099999PLN                                                                                                 
02000011000000001000BOB                                                                                                 
02000012000000001000BOB                                                                                                 
03000012000000556316                                                                                                    
